{
  "_format": "hh-sol-artifact-1",
  "contractName": "StoreFund",
  "sourceName": "contracts/safeERC20.sol",
  "abi": [
    {
      "inputs": [
        {
          "internalType": "address",
          "name": "",
          "type": "address"
        },
        {
          "internalType": "address",
          "name": "",
          "type": "address"
        }
      ],
      "name": "balances",
      "outputs": [
        {
          "internalType": "uint256",
          "name": "",
          "type": "uint256"
        }
      ],
      "stateMutability": "view",
      "type": "function"
    },
    {
      "inputs": [
        {
          "internalType": "address",
          "name": "tokenAddress",
          "type": "address"
        },
        {
          "internalType": "uint256",
          "name": "amount",
          "type": "uint256"
        }
      ],
      "name": "deposit",
      "outputs": [],
      "stateMutability": "payable",
      "type": "function"
    },
    {
      "inputs": [
        {
          "internalType": "address",
          "name": "tokenAddress",
          "type": "address"
        },
        {
          "internalType": "uint256",
          "name": "amount",
          "type": "uint256"
        }
      ],
      "name": "withdraw",
      "outputs": [],
      "stateMutability": "nonpayable",
      "type": "function"
    }
  ],
  "bytecode": "0x608060405234801561001057600080fd5b50610db3806100206000396000f3fe6080604052600436106100345760003560e01c806347e7ef2414610039578063c23f001f14610055578063f3fef3a314610092575b600080fd5b610053600480360381019061004e91906107f0565b6100bb565b005b34801561006157600080fd5b5061007c60048036038101906100779190610830565b6101c7565b604051610089919061087f565b60405180910390f35b34801561009e57600080fd5b506100b960048036038101906100b491906107f0565b6101ec565b005b600081116100fe576040517f08c379a00000000000000000000000000000000000000000000000000000000081526004016100f5906108f7565b60405180910390fd5b6000829050816000803373ffffffffffffffffffffffffffffffffffffffff1673ffffffffffffffffffffffffffffffffffffffff16815260200190815260200160002060008573ffffffffffffffffffffffffffffffffffffffff1673ffffffffffffffffffffffffffffffffffffffff168152602001908152602001600020600082825461018e9190610946565b925050819055506101c23330848473ffffffffffffffffffffffffffffffffffffffff166103b4909392919063ffffffff16565b505050565b6000602052816000526040600020602052806000526040600020600091509150505481565b806000803373ffffffffffffffffffffffffffffffffffffffff1673ffffffffffffffffffffffffffffffffffffffff16815260200190815260200160002060008473ffffffffffffffffffffffffffffffffffffffff1673ffffffffffffffffffffffffffffffffffffffff1681526020019081526020016000205410156102aa576040517f08c379a00000000000000000000000000000000000000000000000000000000081526004016102a1906109c6565b60405180910390fd5b600081116102ed576040517f08c379a00000000000000000000000000000000000000000000000000000000081526004016102e4906108f7565b60405180910390fd5b806000803373ffffffffffffffffffffffffffffffffffffffff1673ffffffffffffffffffffffffffffffffffffffff16815260200190815260200160002060008473ffffffffffffffffffffffffffffffffffffffff1673ffffffffffffffffffffffffffffffffffffffff168152602001908152602001600020600082825461037891906109e6565b9250508190555060008290506103af33838373ffffffffffffffffffffffffffffffffffffffff1661043d9092919063ffffffff16565b505050565b610437846323b872dd60e01b8585856040516024016103d593929190610a29565b604051602081830303815290604052907bffffffffffffffffffffffffffffffffffffffffffffffffffffffff19166020820180517bffffffffffffffffffffffffffffffffffffffffffffffffffffffff83818316178352505050506104c3565b50505050565b6104be8363a9059cbb60e01b848460405160240161045c929190610a60565b604051602081830303815290604052907bffffffffffffffffffffffffffffffffffffffffffffffffffffffff19166020820180517bffffffffffffffffffffffffffffffffffffffffffffffffffffffff83818316178352505050506104c3565b505050565b6000610525826040518060400160405280602081526020017f5361666545524332303a206c6f772d6c6576656c2063616c6c206661696c65648152508573ffffffffffffffffffffffffffffffffffffffff1661058a9092919063ffffffff16565b905060008151111561058557808060200190518101906105459190610ac1565b610584576040517f08c379a000000000000000000000000000000000000000000000000000000000815260040161057b90610b60565b60405180910390fd5b5b505050565b606061059984846000856105a2565b90509392505050565b6060824710156105e7576040517f08c379a00000000000000000000000000000000000000000000000000000000081526004016105de90610bf2565b60405180910390fd5b6000808673ffffffffffffffffffffffffffffffffffffffff1685876040516106109190610c83565b60006040518083038185875af1925050503d806000811461064d576040519150601f19603f3d011682016040523d82523d6000602084013e610652565b606091505b50915091506106638783838761066f565b92505050949350505050565b606083156106d15760008351036106c957610689856106e4565b6106c8576040517f08c379a00000000000000000000000000000000000000000000000000000000081526004016106bf90610ce6565b60405180910390fd5b5b8290506106dc565b6106db8383610707565b5b949350505050565b6000808273ffffffffffffffffffffffffffffffffffffffff163b119050919050565b60008251111561071a5781518083602001fd5b806040517f08c379a000000000000000000000000000000000000000000000000000000000815260040161074e9190610d5b565b60405180910390fd5b600080fd5b600073ffffffffffffffffffffffffffffffffffffffff82169050919050565b60006107878261075c565b9050919050565b6107978161077c565b81146107a257600080fd5b50565b6000813590506107b48161078e565b92915050565b6000819050919050565b6107cd816107ba565b81146107d857600080fd5b50565b6000813590506107ea816107c4565b92915050565b6000806040838503121561080757610806610757565b5b6000610815858286016107a5565b9250506020610826858286016107db565b9150509250929050565b6000806040838503121561084757610846610757565b5b6000610855858286016107a5565b9250506020610866858286016107a5565b9150509250929050565b610879816107ba565b82525050565b60006020820190506108946000830184610870565b92915050565b600082825260208201905092915050565b7f416d6f756e742073686f756c64206265206c6172676572207468616e20302e00600082015250565b60006108e1601f8361089a565b91506108ec826108ab565b602082019050919050565b60006020820190508181036000830152610910816108d4565b9050919050565b7f4e487b7100000000000000000000000000000000000000000000000000000000600052601160045260246000fd5b6000610951826107ba565b915061095c836107ba565b925082820190508082111561097457610973610917565b5b92915050565b7f496e73756666696369656e742066756e64732e00000000000000000000000000600082015250565b60006109b060138361089a565b91506109bb8261097a565b602082019050919050565b600060208201905081810360008301526109df816109a3565b9050919050565b60006109f1826107ba565b91506109fc836107ba565b9250828203905081811115610a1457610a13610917565b5b92915050565b610a238161077c565b82525050565b6000606082019050610a3e6000830186610a1a565b610a4b6020830185610a1a565b610a586040830184610870565b949350505050565b6000604082019050610a756000830185610a1a565b610a826020830184610870565b9392505050565b60008115159050919050565b610a9e81610a89565b8114610aa957600080fd5b50565b600081519050610abb81610a95565b92915050565b600060208284031215610ad757610ad6610757565b5b6000610ae584828501610aac565b91505092915050565b7f5361666545524332303a204552433230206f7065726174696f6e20646964206e60008201527f6f74207375636365656400000000000000000000000000000000000000000000602082015250565b6000610b4a602a8361089a565b9150610b5582610aee565b604082019050919050565b60006020820190508181036000830152610b7981610b3d565b9050919050565b7f416464726573733a20696e73756666696369656e742062616c616e636520666f60008201527f722063616c6c0000000000000000000000000000000000000000000000000000602082015250565b6000610bdc60268361089a565b9150610be782610b80565b604082019050919050565b60006020820190508181036000830152610c0b81610bcf565b9050919050565b600081519050919050565b600081905092915050565b60005b83811015610c46578082015181840152602081019050610c2b565b60008484015250505050565b6000610c5d82610c12565b610c678185610c1d565b9350610c77818560208601610c28565b80840191505092915050565b6000610c8f8284610c52565b915081905092915050565b7f416464726573733a2063616c6c20746f206e6f6e2d636f6e7472616374000000600082015250565b6000610cd0601d8361089a565b9150610cdb82610c9a565b602082019050919050565b60006020820190508181036000830152610cff81610cc3565b9050919050565b600081519050919050565b6000601f19601f8301169050919050565b6000610d2d82610d06565b610d37818561089a565b9350610d47818560208601610c28565b610d5081610d11565b840191505092915050565b60006020820190508181036000830152610d758184610d22565b90509291505056fea2646970667358221220f82648a99cfc50167c6bb58d5de9dd703d10b530fc866f06e7b528fce889536e64736f6c63430008120033",
  "linkReferences": {},
  "deployedLinkReferences": {}
}